:020000040800F2
:10000000E0080020050200080D0200080F020008A9
:100010001102000813020008150200080000000089
:1000200000000000000000000000000017020008AF
:1000300019020008000000001B0200081D02000851
:100040001F0200081F0200081F0200081F0200080C
:100050001F0200081F0200081F0200081F020008FC
:100060001F0200081F0200081F0200081F020008EC
:100070001F0200081F0200081F0200081F020008DC
:100080001F0200081F0200081F0200081F020008CC
:100090001F0200081F0200081F0200081F020008BC
:1000A0001F0200081F0200081F0200081F020008AC
:1000B0001F0200081F0200081F0200081F0200089C
:1000C0001F0200081F0200081F0200081F0200088C
:1000D0001F020008052300081F0200081F02000875
:1000E0001F0200081F0200081F0200081F0200086C
:1000F0001F0200081F0200081F0200081F0200085C
:100100001F0200081F0200081F0200081F0200084B
:100110001F0200081F0200081F0200081F0200083B
:100120001F0200081F0200081F0200081F0200082B
:1001300000F002F800F03CF80AA090E8000C8244BD
:100140008344AAF10107DA4501D100F031F8AFF29A
:10015000090EBAE80F0013F0010F18BFFB1A43F0A5
:10016000010318475C2F00007C2F0000103A24BFC9
:1001700078C878C1FAD8520724BF30C830C144BF0C
:1001800004680C607047000000230024002500264E
:10019000103A28BF78C1FBD8520728BF30C148BFEA
:1001A0000B6070471FB500F062F81FBD10B510BDA1
:1001B00000F09BF81146FFF7F5FF02F0CFFA00F0D0
:1001C000B9F803B4FFF7F2FF03BC00F0C3F8000076
:1001D0000B49D1F800C04A685CF8043B1068184429
:1001E00042F8040B8C4528BFA1F1DC0C8A4228BFE1
:1001F000A1F1DC02C1F800C04A6020F00040704765
:10020000780200200948804709480047FEE7FEE7DA
:10021000FEE7FEE7FEE7FEE7FEE7FEE7FEE7FEE7B6
:1002200004480549054A064B704700001D22000896
:1002300031010008E0020020E0080020E004002076
:10024000E00400200B4910B5A1F17C020A4CC2E980
:100250003712372106E000EB104342F82130074BFC
:1002600000FB03400B1EA1F10101F4DC10BD0120D5
:10027000E8E7000018020020E119D666CD0D010064
:1002800010B5203AC0F00B80B1E81850203AA0E831
:100290001850B1E81850A0E81850BFF4F5AF5FEA65
:1002A000027C24BFB1E81850A0E8185044BF18C918
:1002B00018C0BDE810405FEA827C24BF51F8043BBF
:1002C00040F8043B08BF7047D20728BF31F8023B13
:1002D00048BF11F8012B28BF20F8023B48BF00F8A7
:1002E000012B7047704770477047754600F02CF837
:1002F000AE4605006946534620F00700854618B013
:1003000020B5FFF78DFFBDE820404FF000064FF00D
:1003100000074FF000084FF0000B21F00701AC463A
:10032000ACE8C009ACE8C009ACE8C009ACE8C00959
:100330008D46704710B50446AFF300802046BDE8F7
:100340001040FFF73EBF00000048704780020020C9
:100350007047000001491820ABBEFEE726000200EE
:100360002DE9F04105460E46174600202349087046
:100370003DE000202249088030E0FFF729FF2149B5
:1003800090FBF1F084B220481C49097800EBC110C1
:100390001B49098830F81100201A1C49174A1278A5
:1003A000895C4843642190FBF1F11748134A1278A5
:1003B00000EBC210124A128830F81200084481B2D1
:1003C00011480E4A127800EBC2100D4A128820F82C
:1003D00012100B480088401C094908800848008812
:1003E0004028CADB05480078401C044908700348CF
:1003F00000780328BDDBBDE8F0810000120000207A
:1004000010000020818080001C0000200A000020D5
:1004100000B5FF20234908804880002088800B46D3
:100420001A799978187800F0F7F835E000201E491D
:10043000088011E000F06CF842F2107000F0DAF879
:100440001A480078012802D17F20174908801648F1
:100450000088401C14490880134800888028E9DB84
:100460007F201149088013E000F052F842F210702A
:1004700000F0C0F80D480078012804D10A4908802E
:1004800000200A49087008480088401E0649088074
:10049000054800880028E7DC054800780128C5D019
:1004A00000BD00000200002008000020160000200F
:1004B0001400002000B501201049087000201049E8
:1004C00008700BE001F010FF0E490D4A127821F878
:1004D00012000B480078401C094908700848007851
:1004E0000328EFDB01F000FF074908700846007899
:1004F000532802D000200549087000BD16000020D6
:10050000120000200200002017000020140000202C
:1005100000B51020324908705BE0032031490870B3
:100520004EE004203049088041E02E480078012840
:1005300000D100E000202C490988012900D100E009
:1005400000210840B8B126490A78521E2649098878
:10055000491E02EB011223490978491E234B03EB84
:10056000C11131F81210224A1288514388B2012178
:1005700000F070FF16E01A490A78521E1A490988DD
:10058000491E02EB011217490978491E174B03EB6C
:10059000C11131F81210164A1288514388B2002155
:1005A00000F058FF10480088401E0F4908800E4890
:1005B00000880028B9DC0B480078401E0949087003
:1005C000084800780028ACDC05480078401E044943
:1005D00008700348007800289FDC00F0BDFF00BDD4
:1005E0001300002012000020100000201C0000203A
:1005F000080000200BE00749096841F4C041054AA2
:1006000011601146096841F0C0411160401E002888
:10061000F1D17047100C014010B500231B4C238012
:1006200009E01B4B194C248823F81400174B1B8836
:100630005B1C164C2380154B1B88402BF1DB0023E1
:10064000124C23800AE0124B8033104C248823F88C
:1006500014100E4B1B885B1C0C4C23800B4B1B880F
:10066000402BF0DB0023094C238009E0094B074CA9
:10067000248823F81420054B1B885B1C034C238023
:10068000024B1B88402BF1DB10BD00001000002046
:100690001C0000201C01002070B54020A9490880E2
:1006A0000020A949088047E10020A84908702AE0F5
:1006B0000020A74908801DE0A549098801FB01F039
:1006C000C11700EB91718910491CA24A9F4B1B78FE
:1006D00032F8132092FBF1F19F4A9C4B1B7802EBFE
:1006E000C3129B4B1B8822F8131099480088401CAA
:1006F00097490880964800884028DDDB93480078B9
:10070000401C92490870914800780328D0DBFFF71D
:10071000FFFE3F208C49088040E000208B49087094
:1007200031E08D488949097800EBC11001888A4879
:10073000864A127800EBC210A0F87E10002084498F
:10074000088017E084488149097800EBC11180488E
:100750000088401C31F810007F497C4A127801EB78
:10076000C2117B4A128821F8120079480088401C87
:1007700077490880764800883F28E3DB7348007893
:10078000401C72490870714800780328C9DBFFF7E4
:10079000BFFE6D480088401E6B4908806A4800888B
:1007A0000028BADC3F20684908803AE00020674909
:1007B00008702BE000206849644A127801EBC211EE
:1007C000A1F87E006249088017E063485F49097814
:1007D00000EBC1115E480088401C31F810005E49F2
:1007E0005A4A127801EBC211594A128821F81200B4
:1007F00057480088401C56490880554800883F28C3
:10080000E3DB52480078401C504908704F4800789C
:100810000328CFDBFFF77CFE4B480088401E4A4987
:100820000880494800880028C0DC4A4B1A7999782A
:100830001878FFF7F1FEFFF76BFE002042490880B1
:1008400039E04448008840490988C1F164014843BF
:10085000642190FBF1F03F490978081AC4B23D4881
:10086000408839490988C1F164014843642190FBFB
:10087000F1F038498978081AC5B23648808832497B
:100880000988C1F164014843642190FBF1F03149CA
:100890000979081AC6B2324629462046FFF7BCFE3F
:1008A000FFF736FE4FF47A70FFF7A4FE2648008863
:1008B000401C25490880244800886428C1DB0020AA
:1008C0002149088033E0234800881F4909884843AC
:1008D000642190FBF1F01F490978081AC4B21D4841
:1008E0004088194909884843642190FBF1F019496F
:1008F0008978081AC5B2174880881349098848437F
:10090000642190FBF1F013490979081AC6B2324606
:1009100029462046FFF780FEFFF7FAFD47F23050E8
:10092000FFF768FE08480088401C07490880064811
:1009300000886428C7DB00BF0848007807283FF418
:10094000B3AE70BD08000020180000201200002087
:1009500010000020020000201C00002014000020D5
:100960002DE9F04FAFB0A2E1D5480078042801D1BD
:10097000012000E00020D349097809B9012100E0F5
:100980000021084000284DD00020CF4988804880B1
:1009900008808020CD49088033E0FFF719FCCC495E
:1009A00090FBF1F084B2282528E004EB44000521F7
:1009B00090FBF1F05030C4490988401A282190FB7F
:1009C000F1F0C14909880844BF490880204604EB7A
:1009D000D071BD4A5288C2EB6101282291FBF2F12D
:1009E000B94A52881144B84A518013461A79997805
:1009F0001878FFF711FEFFF78BFD6D1E002DD4DC7C
:100A000000BFAF480078042801D1012000E0002099
:100A1000AC49097809B9012100E00021084000280B
:100A2000A1D0BAE7A6480078042801D1012000E04F
:100A30000020A4490978012900D100E000210840E4
:100A4000002874D04020A14908804FF0000B5CE0E2
:100A5000BBF1000F19D1002413E0FFF7B9FB0546E5
:100A6000C01705EB90208015782190FBF1F0C0EBCA
:100A700000104FF6FF7101EAC0000EA921F8140022
:100A8000641C402CE9DB4FF01E0B4FF0000A33E0F2
:100A90000EA931F81A1001FB01F0C11700EB9151BA
:100AA0008A128C4931F81A10511A282291FBF2F25D
:100AB000884931F81A1011448AB2864921F81A205F
:100AC00031F81A0002F0EEF88046834A834B02F0B8
:100AD000FDF806460022824B01F0A0FE044602F01B
:100AE0009DF87C49803921F81A000021794880302E
:100AF00020F81A100AF1010ABAF1400FC8DBFFF71B
:100B000007FDABF1010000F0FF0B6D4800780428F1
:100B100001D1012000E000206A490978012901D1B2
:100B200001E004E000210840002891D1BFE06448C2
:100B30000078042801D1012000E0002061490978F3
:100B4000022901D1012100E0002108400028EDD058
:100B50004FF0000B40205D49088095E0BBF1000F8D
:100B60001BD1002415E0FFF733FB0546C01705EB4A
:100B700090208015642190FBF1F000EBC00101EBA7
:100B800000104FF6FF7101EA80000EA921F8140051
:100B9000641C402CE7DB4FF01E0B4FF0000A6AE0AC
:100BA0000A209AFBF0F0401C0EA931F81A1091FBB4
:100BB000F0F04849803931F81A10401A1E2190FB94
:100BC000F1F14448803830F81A00401C084441498B
:100BD000803921F81A00803131F81A0002F062F8E9
:100BE000CDE906010AFB0AF0642190FBF1F0441CF8
:100BF000204602F040F8CDE902010EA931F81A10A2
:100C000001FB01F002F037F80646364A364B02F097
:100C10005DF8044600224FF0814301F0A7FECDE9C4
:100C20000001DDE9022301F0A1FECDE90401DDE9C7
:100C3000062302F049F9804600222C4B01F096FE73
:100C4000CDE90A01234931F81A0002F02BF8CDE969
:100C50000801DDE90A2301F0E1FDCDE90C0101F015
:100C6000DDFF81B21B4820F81A100021803020F8E7
:100C70001A100AF1010ABAF1400F91DBFFF748FCA4
:100C8000ABF101001FFA80FB0D480078042801D168
:100C9000012000E000200B490978022901D101213F
:100CA00000E00021084000287FF458AF00BF04484E
:100CB000007804283FF458AE2FB0BDE8F08F000054
:100CC0001400002015000020020000200800002071
:100CD000082184009C000020CDCCCCCCCCCCFC3FA7
:100CE000000054409A9999999999E93F00003E4033
:100CF00000B50120104908700020104908700AE072
:100D000001F0F2FA0E490D4A127888540B48007827
:100D1000401C0A490870094800780328F0DB01F0FC
:100D2000E3FA0849087008460078532802D00020EA
:100D30000549087000BD00001600002012000020C8
:100D40000A000020170000201400002030B589B0F0
:100D500004460D4624225E496846FFF791FA8BE06F
:100D600000205C4908703BE004EB4400694601EB5D
:100D700040005849097830F811005749554A12780F
:100D800031F8121088420ADA53485249097830F88B
:100D90001100401E50494F4A127821F8120004EB0E
:100DA0004400694601EB40004A49097830F81100D7
:100DB0004949484A127831F8121088420BDD4648FA
:100DC0004449097830F81100401C81B24248414A38
:100DD000127820F812103F480078401C3D490870F6
:100DE0003C4800780328BFDB002010E03A4909881E
:100DF0003A4A22F8101038494A883849803121F897
:100E0000102035498A88364921F81020401C402896
:100E1000ECDBFFF77DFB681C2CE0691C27E0314A06
:100E20001278012A17D104EB44023DF812202A4B14
:100E30001A8004EB44026B4603EB42025288264BB5
:100E40005A8004EB44026B4603EB42029288224B29
:100E50009A8001200121244A126842F4C042224BA8
:100E60001A601A46126842F0C0421A60491E0029F0
:100E7000D5DC401E0028D0DC1748008804EB440174
:100E80003DF81110884201D0012000E000201249F5
:100E9000498804EB44026B4603EB420252889142BC
:100EA00001D0012100E0002108430B49898804EBAF
:100EB00044026B4603EB42029288914201D0012129
:100EC00000E00021084300287FF44AAF09B030BD9C
:100ED0009C30000812000020020000201C000020AE
:100EE0001C01002016000020100C014070B50024E9
:100EF0004020F84908801920F74908804FF4FF7016
:100F0000F649088000204880888005E2F44800788F
:100F1000052801D1012000E00020F249097809B933
:100F2000012100E00021084088B31920EA49088027
:100F300021E0E948008800EB80004FF6FF7202EAEA
:100F400080012046FFF702FF601CC4B2052C00DDC3
:100F50000024E548007801280DD1DF48008800EB27
:100F600080004FF6FF7202EA80012046FFF7EEFE96
:100F70000020DD490870DA480078052801D10120F9
:100F800000E00020D749097811B9012101E003E010
:100F9000002108400028CCD1D1480078052801D193
:100FA000012000E00020CF490978012900D100E0AC
:100FB00000210840B8B31920C74908802DE0C64871
:100FC000008800EB80004FF6FF7202EA80012046A5
:100FD000FFF7BCFE2546FFF7FBF8062190FBF1F278
:100FE00001FB1200C4B2AC4201D1601CC4B2052C9A
:100FF00000DD0024BC48007801280DD1B6480088E7
:1010000000EB80004FF6FF7202EA80012046FFF7F6
:101010009DFE0020B449087000BFB1480078052843
:1010200002D1012001E009E00020AE490978012940
:1010300000D100E0002108400028C0D1A848007875
:10104000052801D1012000E00020A64909780229E5
:1010500001D1012100E00021084000287DD040207E
:101060009C490880FF2200211046FFF7D5FAFFF7C0
:101070004FFAFF209D4908800020A1F88000FF2042
:10108000A1F800010520944908801CE198480088D7
:10109000914909880844964908803F20954908806D
:1010A00027E094480088401E904931F810108F487E
:1010B000904A128820F812108E480088401E8B49F2
:1010C000803131F81010894880308A4A128820F81F
:1010D000121088480088401E874931F81010864851
:1010E000844A128820F8121082480088401E8149E4
:1010F0000880804800880028D3DC7D48008840F2C2
:10110000FA51884202DB002079490880764800784D
:10111000012816D140F2FA5075490880FF20734922
:1011200008800020A1F88000FF20A1F80001FF2224
:1011300000211046FFF770FAFFF7EAF900206A492C
:1011400008706B480088FF2811DAFF206749088083
:101150000020A1F88000084600E0DDE0B0F80001C2
:101160005D490988401A6149A1F80001A6E060487C
:101170000088FF2801DB012000E000205C4909888D
:10118000B1F5FF7F01DA012100E00021084078B1CC
:10119000FF20564908800846B0F880004E4909886B
:1011A00008445249A1F880000020A1F8000185E020
:1011B0004F480088B0F5FF7F01DB012000E00020F0
:1011C0004B490988B1F53F7F01DC012100E0002196
:1011D000084068B1454800883F490988401A43499A
:1011E0000880FF20A1F880000020A1F8000165E040
:1011F0003F480088B0F53F7F01DD012000E000207E
:101200003B490988B1F57F7F01DA012100E0002127
:10121000084078B1002035490880FF20A1F88000FF
:101220000846B0F800012C49098808442F49A1F864
:10123000000143E02E480088B0F57F7F01DB0120EC
:1012400000E000202A49098840F2FB42914201DA7D
:10125000012100E00021084078B1002023490880E6
:101260000846B0F880001C490988401A1F49A1F8B7
:101270008000FF20A1F8000120E01D48008840F216
:10128000FB41884201DB012000E000201849098869
:1012900040F2FA52914201DA012100E000210840B7
:1012A00060B1124800880C49098808440F49088039
:1012B0000020A1F88000FF20A1F80001FFF728F925
:1012C0000E48FFF797F906480078052818D1012045
:1012D00017E00000080000200E000020020000209F
:1012E0001400002015000020160000201C00002023
:1012F00018000020100000201C010020A086010022
:10130000002008490978022901D1012100E00021CB
:10131000084000287FF4BAAE0348007805283FF45F
:10132000F5AD70BD150000201400002010B5802020
:101330001C49088000201C490870487088701B4BAD
:101340001A7999781878FFF767F900221146104644
:10135000FFF706F8FFF7DCF81FE01548006840F4D7
:10136000C040134908600846006840F0C04008606B
:1013700010480078012810D10C4B1A799978187808
:10138000FFF74AF9084B9A7859781878FEF7E8FF82
:10139000FFF7BEF8002007490870074800780228C8
:1013A000DBD010BD080000200A0000200200002051
:1013B000100C01401600002014000020094880692C
:1013C00040F008000749886107480068074908405D
:1013D0000549086008460068054908430249086055
:1013E0007047000000100240040C0140FFFF33333F
:1013F0000000222200201549088021E014480068DE
:1014000040F4C040124908600846006840F0C040FF
:1014100008600E48008820B90846006840F4004083
:1014200008600A4800880E2805D10948006840F085
:1014300000400749086005480088401C03490880AF
:10144000024800880F28D9DD704700000000002006
:10145000100C01400022264B1A8043E0244A1288D7
:10146000C2F10F0240FA02F202F0010232B1214A47
:10147000126842F480521F4B1A6005E01D4A126840
:1014800042F080521B4B1A601A4A126842F4C04262
:10149000184B1A601A46126842F0C0421A60144A89
:1014A00012880E2A01D1012200E000220A402AB14E
:1014B000104A126842F400420E4B1A600C4A12881D
:1014C0000F2A01D1012200E000220A402AB1094A74
:1014D000126842F00042074B1A60054A1288521CFB
:1014E000034B1A80024A12880F2AB7DD70470000AA
:1014F00000000020100C014000201549088021E068
:101500001448006840F4C04012490860084600686A
:1015100040F0C04008600E48008820B908460068C6
:1015200040F4004008600A4800880A2805D10948AC
:10153000006840F000400749086005480088401CEA
:1015400003490880024800880F28D9DD7047000051
:1015500000000020100C014000201B49088018E00A
:101560001A48006840F4C0401849086008460068FE
:1015700040F0C040086014480088352804D108466F
:10158000006840F4004008600F480088401C0E4985
:1015900008800D4800883728E2DD0C48006840F4D8
:1015A000C0400A4908600846006840F0C040086032
:1015B0000846006840F0004008600A2000E0401E35
:1015C0000028FCDC7047000000000020100C0140E7
:1015D0000022264B1A8043E0244A1288C2F10F02EF
:1015E00040FA02F202F0010232B1214A126842F4DA
:1015F00080521F4B1A6005E01D4A126842F080526B
:101600001B4B1A601A4A126842F4C042184B1A6007
:101610001A46126842F0C0421A60144A12880B2A15
:1016200001D1012200E000220A402AB1104A1268CA
:1016300042F400420E4B1A600C4A12880F2A01D164
:10164000012200E000220A402AB1094A126842F051
:101650000042074B1A60054A1288521C034B1A803D
:10166000024A12880F2AB7DD7047000000000020F0
:10167000100C014010B580207B49088000207B4978
:10168000088044E0FEF7A4FD0446C01704EB902058
:101690008015142190FBF1F000EB80004FF6FF71F4
:1016A00001EA80007249714A128821F81200FEF79F
:1016B0008FFD0446C01704EB90208015142190FB89
:1016C000F1F000EB80004FF6FF7101EA80016848FD
:1016D0008030664A128820F81210FEF779FD044621
:1016E000C01704EB90208015142190FBF1F000EB63
:1016F00080004FF6FF7101EA80015E485B4A128864
:1017000020F8121059480088401C58490880574852
:1017100000884028B6DBFEF7FBFE9EE00020534920
:1017200008808FE052485149098830F8110008B903
:10173000012000E000204E4980314C4A128831F8E7
:10174000121009B9012100E0002108404949474A27
:10175000128831F8121009B9012100E00021084077
:10176000F0B3FEF735FD0446C01704EB902080155A
:10177000782190FBF1F0C0EB00104FF6FF7101EA09
:10178000C0003B49394A128821F81200FEF720FDBB
:101790000446C01704EB90208015782190FBF1F0EF
:1017A000C0EB00104FF6FF7101EAC00130488030F5
:1017B0002E4A128820F81210FEF70AFD0446C017C0
:1017C00004EB90208015782190FBF1F0C0EB001025
:1017D0004FF6FF7101EAC0012648244A128800E052
:1017E00001E020F8121000202349087021E0204871
:1017F0002149097800EBC1101C49098830F8110013
:1018000090B11B481C49097800EBC11017490988A1
:1018100030F81100401E1649174A127801EBC21128
:10182000124A128821F8120013480078401C12490D
:101830000870114800780328D9DB0C480088401C48
:101840000A490880094800884028FFF66BAF42F239
:101850001070FEF7CFFEFEF75BFE08480078082800
:101860003FF45CAF10BD0000080000201000002015
:101870001C0000201C010020120000201400002089
:1018800010B5ACE1D9480078032801D1012000E06F
:101890000020D749097809B9012100E0002108405A
:1018A00000285AD03C20D3490880FF2048800020DF
:1018B00088806420D04908803220D0490870487060
:1018C00000208870CB4B1A7999781878FEF7A4FE1F
:1018D000CA4B9A7859781878FEF742FDFEF718FE41
:1018E0002AE0C748006840F4C040C549086008467F
:1018F000006840F0C0400860C2480078012800D16C
:1019000000E00020B9490978032901D1012100E054
:101910000021084080B1B74B1A7999781878FEF702
:101920007BFEB64B9A7859781878FEF719FDFEF7CA
:10193000EFFD0020B3490870AC480078032801D1BE
:10194000012000E00020AA49097809B9012100E03E
:1019500000210840002894D0C3E7A4480078032859
:1019600001D1012000E00020A1490978012900D11E
:1019700000E00021084000285AD06E209D490880D0
:1019800082204880002088803C209B4908801E20BF
:101990009A490870487000208870964B1A79997897
:1019A0001878FEF739FE954B9A7859781878FEF733
:1019B000D7FCFEF7ADFD2AE09148006840F4C04036
:1019C0008F4908600846006840F0C04008608D48B4
:1019D0000078012800D100E000208449097803291B
:1019E00001D1012100E00021084080B1814B1A792A
:1019F00099781878FEF710FE804B9A785978187805
:101A0000FEF7AEFCFEF784FD00207E4908707748A3
:101A10000078032801D1012000E0002074490978F2
:101A2000012900D100E000210840002893D0C3E73D
:101A30006E480078032801D1012000E000206C49A5
:101A40000978022901D1012100E000210840002885
:101A50005AD0A020674908804880C820888040204C
:101A600065490880002065490870487050208870DA
:101A7000604B1A7999781878FEF7CEFD5F4B9A780B
:101A800059781878FEF76CFCFEF742FD2AE05C48B6
:101A9000006840F4C0405A4908600846006840F0B9
:101AA000C040086057480078012800D100E00020BD
:101AB0004E490978032901D1012100E000210840A5
:101AC00080B14C4B1A7999781878FEF7A5FD4B4BED
:101AD0009A7859781878FEF743FCFEF719FD002034
:101AE0004849087041480078032801D1012000E0EE
:101AF00000203F490978022901D1012100E000219D
:101B0000084000286BD0C2E738480078032801D18C
:101B1000012000E0002036490978032901D1012184
:101B200000E000210840002859D0002031490880F9
:101B3000012048800020888040202F490880002014
:101B40002E490870487088702A4B1A79997818784D
:101B5000FEF762FD294B9A7859781878FEF700FC59
:101B6000FEF7D6FC2AE02648006840F4C04024492D
:101B700008600846006840F0C040086021480078CE
:101B8000012800D100E0002018490978032901D17B
:101B9000012100E00021084080B1164B1A799978A4
:101BA0001878FEF739FD154B9A7859781878FEF7B2
:101BB000D7FBFEF7ADFC0020124908700B480078F7
:101BC000032801D1012000E00020094909780329F8
:101BD00001D1012100E0002108400028C3D10348C1
:101BE000007803283FF44EAE10BD00001400002022
:101BF0001500002002000020080000200A0000203C
:101C0000100C01401600002000B5012008490870A2
:101C100000F06AFB0749088000F066FB064908707F
:101C200008460078532802D000200449087000BDFF
:101C300016000020080000201700002014000020DB
:101C400000B501200849087000F04EFB07490880E4
:101C500000F04AFB0649087008460078532802D075
:101C600000200449087000BD160000200E0000206E
:101C7000170000201400002000B58020FA490880D9
:101C80008000FA490880002048804FF40070888066
:101C90000020F7490880E1E1F6480078062801D1E4
:101CA000012000E00020F449097809B9012100E091
:101CB0000021084000287AD00020F04908702BE06D
:101CC0000020EF4908801EE0ED49098801FB01F082
:101CD000C11700EB91718910491CE44AE74B1B784E
:101CE00032F8132092FBF1F18AB2E649E34B1B78FC
:101CF00001EBC311E24B1B8821F81320E048008858
:101D0000401CDF490880DE4800884028DCDBDB48D7
:101D10000078401CD9490870D84800780328CFDBE8
:101D2000FEF7F6FB79E00020D449087031E0D54891
:101D3000D249097800EBC1100088D249CF4A127805
:101D400001EBC211A1F87E000020CD49088017E008
:101D5000CC48CA49097800EBC111C9480088401C29
:101D600031F81000C749C54A127801EBC211C44AC4
:101D7000128821F81200C2480088401CC04908801F
:101D8000BF4800883F28E3DBBC480078401CBB49C3
:101D90000870BA4800780328C9DBBB4800780128DE
:101DA00036D10020B8490870B44908702CE045E0ED
:101DB0000020B34908801EE0B149098801FB01F009
:101DC000C11700EB91718910491CA84AAB4B1B78D5
:101DD00032F8132092FBF1F18AB2AA49A74B1B7883
:101DE00001EBC311A64B1B8821F81320A4480088DF
:101DF000401CA3490880A24800884028DCDB9F489B
:101E00000078401C9D4908709C4800780328CFDB6F
:101E1000FEF77EFB9D48FEF7EDFB9648007806280E
:101E200001D1012000E000209349097809B901217E
:101E300000E00021084000287FF475AF8D4800784D
:101E4000062801D1012000E000208B4909780129F2
:101E500000D100E00021084000287CD00020874904
:101E600008704AE00020864908803DE084480088E8
:101E700020281ADA8249098801FB01F0C11700EB1A
:101E800091718910491C794A7C4B1B7832F81320D8
:101E900092FBF1F18AB27B49784B1B7801EBC311BD
:101EA000774B1B8821F8132019E0754909882039E0
:101EB00001FB01F0C11700EB91718910491C6B4ABD
:101EC0006E4B1B7832F8132092FBF1F16D4A6B4B8D
:101ED0001B7802EBC3126A4B1B8822F81310684868
:101EE0000088401C66490880654800884028BDDBA2
:101EF00062480078401C61490870604800780328F7
:101F0000B0DBFEF705FB98E000205C49087033E089
:101F10005C485A49097800EBC11000885949574A72
:101F2000127801EBC211A1F87E000020544908800C
:101F300019E054485149097800EBC1115048008814
:101F4000401C31F810004F494C4A127801EBC21185
:101F50004B4A128800E081E021F8120048480088CE
:101F6000401C47490880464800883F28E1DB434839
:101F70000078401C41490870404800780328C7DBBE
:101F800041480078012853D100203F4908703B495F
:101F9000087049E000203A4908803CE03848008851
:101FA000202819DA3649098801FB01F0C11700EB36
:101FB00091718910491C2D4A304B1B7832F813203F
:101FC00092FBF1F12F4A2D4B1B7802EBC3122C4BE5
:101FD0001B8822F8131019E029490988203901FBD0
:101FE00001F0C11700EB91718910491C1F4A234B66
:101FF0001B7832F8132092FBF1F1224A1F4B1B7819
:1020000002EBC3121E4B1B8822F813101C480088D9
:10201000401C1B4908801A4800884028BEDB17482E
:102020000078401C15490870144800780328B1DB7B
:10203000FEF76EFA1548FEF7DDFA0E48007806281E
:1020400001D1012000E000200B490978012900D1CD
:1020500000E00021084000287FF456AF05480078D2
:1020600006283FF419AE00BD080000200200002041
:10207000180000201400002015000020120000208D
:10208000100000201C00002016000020A086010087
:1020900000B5FF20234908800020488088800B4637
:1020A0001A7999781878FEF7B7FA35E000201E49BA
:1020B000088011E0FEF72CFA42F21070FEF79AFA4F
:1020C0001A480078012802D17F2017490880164855
:1020D0000088401C14490880134800888028E9DBE8
:1020E0007F201149088013E0FEF712FA42F21070C7
:1020F000FEF780FA0D480078012804D10A490880CB
:1021000000200A49087008480088401E06490880D7
:10211000054800880028E7DC054800780028C5D07D
:1021200000BD000002000020080000201600002072
:102130001400002010B500F001F810BD0CB500200F
:10214000019000903348006840F4803031490860C5
:1021500000BF3048006800F4003000900198401C37
:102160000190009818B90198B0F5A06FF1D12948F5
:10217000006800F4003010B10120009001E0002060
:1021800000900098012843D12348006840F01000D7
:10219000214908600846006820F0030008600846EE
:1021A000006840F0020008601A4840681949486019
:1021B0000846406848600846406840F480604860CF
:1021C0000846406820F47C1048600846406840F4A7
:1021D000E81048600846006840F08070086000BF62
:1021E0000C48006800F000700028F9D009484068E9
:1021F00020F00300074948600846406840F00200AC
:10220000486000BF0348406800F00C000828F9D17E
:102210000CBD0000001002400020024010B5134821
:10222000006840F001001149086008464068104904
:1022300008400E494860084600680E4908400B49AE
:1022400008600846006820F480200860084640685E
:1022500020F4FE0048604FF41F008860FFF76AFF1B
:102260004FF000600449086010BD000000100240FB
:102270000000FFF8FFFFF6FE08ED00E01748806958
:1022800040F00500154988611548006820F44C604D
:10229000134908600846006840F4906008600846EA
:1022A000006840F0300008600846006820F4407084
:1022B00008600A48806940F480400849886141F616
:1022C0004C500849088042F20C00091D088008465D
:1022D000008840F020000880704700000010024095
:1022E000040801400838014000BF0548008800F09C
:1022F00020000028F9D00248001D0088C0B27047B5
:102300000038014000B5FB48008820F02000F94962
:102310000880FFF7E9FFF84908700846007843286D
:102320000AD04D2819D0532802D054287DD139E045
:102330000020F249087004E20120F0490870F049D9
:102340000870FFF7D1FFEC49087008460078532861
:1023500002D00020E9490870F3E10220E749087043
:10236000FFF7C2FFE449087008460078422806D00B
:10237000432807D0442808D053280DD108E0FFF7A0
:1023800043FC0DE0FEF796F80AE0FEF7B1FC07E02B
:102390000020DA49087003E00020D849087000BF27
:1023A00000BFCEE1FFF7A0FFD349087008460078D0
:1023B00044286FD006DC41280BD0422879D043282E
:1023C0006AD1C9E0452868D0462867D05328F7D19C
:1023D000A9E10320C9490870FFF786FFC6490870C4
:1023E00008460078452821D006DC41280BD0422839
:1023F0004AD0432857D14AE0462821D0472831D037
:10240000532850D14BE00020BE4908700120BC4940
:102410000870FFF769FFB84908700846007853282C
:1024200002D00020B549087041E086E10120B5499D
:102430000870B3490870FFF757FFAF49087036E0DE
:102440000220B04908700120AD490870FFF74CFF29
:10245000A949087008460078532802D00020A749EF
:10246000087024E00320A74908700120A4490870DF
:10247000FFF73AFFA049087008460078532802D0B9
:1024800000209E49087012E0FFF7BEFB0FE0FEF748
:1024900011F80CE0BBE00CE049E1FCE01BE100209E
:1024A0009649087003E000209449087000BF00BFFF
:1024B00041E1042091490870012091490870FFF71B
:1024C00013FF8D49087008460078452819D004DCB0
:1024D000412807D0422839D131E0462820D053285E
:1024E00034D12FE0002087490870FFF7FDFE8249B4
:1024F000087008460078532802D000207F490870F1
:1025000028E001207F490870FFF7EEFE7A49087045
:1025100008460078532802D000207849087019E056
:10252000022078490870FFF7DFFE734908700846FB
:102530000078532802D00020704908700AE0FFF7A5
:1025400063FB07E000206D49087003E000206B4941
:10255000087000BF00BFEEE0052068490870FFF773
:10256000C3FE654908700846007846282AD006DC74
:10257000412809D042283AD0452842D113E05328B7
:102580003BD056283DD135E000205E490870FFF76A
:10259000ABFE5949087008460078532802D0002045
:1025A0005649087031E0012056490870FFF79CFE3B
:1025B0005149087008460078532802D000204F493E
:1025C000087022E002204F49087001204C49087031
:1025D00005204D490880FFF787FE474908700846E7
:1025E0000078532802D00020444908700DE0FFF71E
:1025F0000BFB0AE0FFF724FB07E000203F490870CF
:1026000003E000203D49087000BF00BF93E00620B2
:102610003A490870FFF768FE3749087008460078A5
:1026200043282BD004DC412807D042282DD122E0BA
:10263000452811D0532828D123E0002031490870C3
:10264000FFF752FE2C49087008460078532802D044
:1026500000202A4908701CE001202A490870FFF771
:1026600043FE2549087008460078532802D0002010
:10267000224908700DE0FFF7C7FA0AE0FDF71AFFDC
:1026800007E000201D49087003E000201B49087086
:1026900000BF00BF4FE0072018490870FFF724FE75
:1026A0001549087008460078422804D0432805D010
:1026B00053280AD105E0FFF7A7FA0AE0FDF7FAFE72
:1026C00007E000200D49087003E000200B49087066
:1026D00000BF00BF2FE0082008490870FFF704FE84
:1026E000054908700846007842280FD0532814D1B5
:1026F0000FE000000C3801401700002014000020FB
:1027000016000020150000200E000020FFF77CFAC4
:1027100007E000200F49087003E000200D49087011
:1027200000BF00BF07E000200A49087003E0002056
:102730000849087000BF00BF03E000200549087089
:1027400000BF00BF0448008840F020000249088014
:1027500000BD0000140000200C380140FFF78EFD82
:10276000FEF72CFEFEF7C8FEFEF744FE0C202949BA
:10277000088013E027480088012805D1012142F292
:102780002B00FEF725FF04E0002142F22B00FEF7AC
:102790001FFF20480088401E1E4908801D480088F1
:1027A0000028E7DC252000F01F02012191404209AA
:1027B000920002F1E022C2F8001100BF29E01648A1
:1027C0000078092821D2DFE800F005080B0E11146B
:1027D000171A1D00FFF75CFC1AE0FDF719FE17E061
:1027E000FEF7A4FD14E0FFF74BF811E0FEF7B8F890
:1027F0000EE0FEF77BFB0BE0FFF73EFA08E0FDF78B
:102800004BFF05E0FEF736FF02E0FFF741FC00BF9B
:1028100000BFD4E7180000201400002010B591EA92
:10282000030F48BF83F0004300F15683841A71EB15
:10283000030C05D2121943EB0C03001B61EB0C01D6
:10284000DFF824E14FEA1154A4EB135C1EEA430FB6
:1028500018BF9EEA445F73D023EA0E03DCF1200E1A
:1028600021EA045143F4801332D322FA0CFE10EB18
:102870000E0023FA0CFE41EB0E01CCF1200E03FA00
:102880000EFE10EB0E0051F10001B1F5801FCCF1EE
:10289000200E32D201EB045112FA0EF2BDE81040C4
:1028A00058BF7047401C38BF5FEA420218BF7047EC
:1028B000002814BF20F0010041F100014FEA41035C
:1028C00013F5001F38BF7047A1F1C04100F0F6BA00
:1028D000012A43EB0302ACF1200CDCF11F0E32BFE6
:1028E0004FF0000E23FA0CF310EB030041EB045100
:1028F000B4EB115FD0D0A1EB045101F58011490870
:102900005FEA300001EB04510ED350F1000038BFF4
:1029100012FA0EFE08D1BDE81040C9E7401C38BFCE
:102920005FEA4202CAD1C3E7BDE810404FEA410363
:1029300013F5001F38BF7047A1F1C04100F0BEBAC7
:102940009EEA445F08D011EA5E0FBDE8104004BF64
:1029500001F0004100207047BDE8104070B500F064
:102960005FFA00BF64FBBE3E0000E0FF2DE9C041FE
:1029700030B4DFF8A0C23CEA111418BF3CEA1314CB
:1029800000F0EC8081EA03051CEA111444EAD574D6
:1029900018BF1CEA131500F0C780A4EB05044FF024
:1029A000004545EAC12145EAC32341EA505143EAC3
:1029B000525304F17F74994204F500344FEAC02069
:1029C0004FEAC22208BF904200F09C804FEA136594
:1029D0000FF24016765D4FEA134506FB05F7C7F187
:1029E000807706FB07F74FEAD737A7FB03687642E5
:1029F000C8F58038A7FB06CE38BFA8F1010807FB51
:102A000008E64FF0000EA6FB028CE6FB03CEDCF1DD
:102A1000000CCEF1004E38BFAEF1010EA6FB0C58F3
:102A20004FF000074FF00005E6FB0E87A1FB08C63C
:102A3000A0FB07CE16EB0E0645F10005E1FB07658E
:102A400015F1E04E7EBFA4F580345FEA46066D4185
:102A500016F1800745F100054FEA17274FEA066691
:102A600047EA0567A6F1DE46B6F1805F4FEA152515
:102A70001FD9384624F0010C05EBC471BCF1FE6F80
:102A800001EB0C1102D8F0BCBDE8008124425CBF10
:102A900001F5801E9EEAC47F02D4F0BCBDE800812F
:102AA000244238D4F0BCA1F1C041BDE8004100F09F
:102AB00005BA4FEAD22242EA43524FEAD323A7FB98
:102AC00002864FEAD02040EA415007FB03661EEA27
:102AD0000E0F4FEAD12105FB026658BFA6EB005648
:102AE000B6EB00564FEA520E4EEAC37E18EB0E0EBE
:102AF00056EB530EBDD518EB02085E417F1C55F115
:102B00000005B6E74FF480154FF000074FF00006C0
:102B10004FF00008ADE7F0BC4FF0000001F1C041FC
:102B200001F00041BDE8008111EA0C1F0CEA131509
:102B300000D00CE013EA0C1F00F025804FF00000DD
:102B4000F0BC81EA030101F00041BDE80081F0BC66
:102B5000BDE8004181EA030100F0B0B9F0BCBDE876
:102B6000004170B500F05CF9097EFC3E00F007B84A
:102B700081EA03014FF0000001F00041704781EA53
:102B8000030100F09BB9F0BCBDE800414FF000002C
:102B900021497047FFFDFBF9F7F5F4F2F0EEEDEB9C
:102BA000E9E8E6E4E3E1E0DEDDDBDAD8D7D5D4D34B
:102BB000D1D0CFCDCCCBCAC8C7C6C5C4C2C1C0BF97
:102BC000BEBDBCBBBAB9B8B7B6B5B4B3B2B1B0AF9D
:102BD000AEADACABAAA9A8A8A7A6A5A4A3A3A2A181
:102BE000A09F9F9E9D9C9C9B9A999998979796953C
:102BF00095949393929191908F8F8E8E8D8C8C8BD8
:102C00008B8A89898888878786858584848383825F
:102C1000828181800000FF070000F87F4FEA115396
:102C2000A3F58063D3F11E03A8BFD3F1200C08DB0A
:102C30004FF0004242EAC12252EA505232FA03F007
:102C4000704709420BD4102BC4BF0020704703F516
:102C5000787CBCF1FF3F05D04FF0FF3070474FF05C
:102C60000000704770B500F0DBF800BF4992248087
:102C700000207047F0E710F0004248BF4042B0FA31
:102C800080F310FA03F10AD0C3F11D0303F580634A
:102C90004FEA415002EB035202EBD12170474FF053
:102CA00000007047B0FA80F310FA03F10AD0C3F1C4
:102CB0001D0303F580634FEA41504FEA035202EBD4
:102CC000D12170474FF0000070470000DFF848C185
:102CD00070B51CEA111E1EBF1CEA13159EEA0C0FEC
:102CE00095EA0C0F00F06F8081EA030423EA4C138D
:102CF0004EEAD47E21EA4C1141F4801143F4801352
:102D0000AE44A1FB024CA0FB0365AEF17F7E3619F9
:102D100055EB0C05A1FB034C4CF10003A0FB021C7E
:102D200016EB0C06654153F10003094218BF46F04B
:102D3000010613F4007F0BD14FEA03314FEA05304F
:102D4000340341EA155140EA16506FF003020AE0DD
:102D50004FEAC3214FEAC520F40241EA555140EA47
:102D600056506FF0020202EB2E4201EB025585EA4B
:102D7000CE710AD05FEA440C18BF24F0004450F131
:102D8000000041F1000120EAD47040F2FE7C62456F
:102D900000D270BDA84214BF4FF080444FF04044B1
:102DA000002E08BF0024BEF1806FA8BFA1F1C04172
:102DB000BDE8704080F282804FF0000001F1C04118
:102DC00001F0004170479EEA0C0F0CEA131518BF82
:102DD00095EA0C0F06D04FF0000081EA030E0EF0CA
:102DE000004170BD00F01CF88900013E00F007B8FA
:102DF00000F009B84FEA430C5FEA5C5C08D081EA56
:102E0000030100F05BB84FEA410C5FEA5C5CF6D16D
:102E10004FF00000014970470000FF070000F87FF5
:102E20000EF1020E2EF0030E5EF8046B364205D44E
:102E3000012A43EB030515F5001F12D8012841EBC9
:102E4000010C1CF5001F0CD80ED14FEAD17C15F5F2
:102E5000001F0CEB4C0C0CF1020C08BF4CEBD37CAC
:102E600004E04FF0080C01E04FEAD37C0CEB4C057A
:102E700026FA05F606F00706B6F1040C06D20EEBAC
:102E8000860CBDE870404CF0010C6047DFE80CF0A8
:102E9000090B02024FF000414FF00000A1F50021A4
:102EA00070BD19461046012851EB010418BFD4F536
:102EB000001484BF002001F0004170BD0808A0F597
:102EC00000114FEA3101704710B591EA030F48BF76
:102ED00083F000433FF5AAAC841A71EB030C07D2D0
:102EE00012198CF0004C43EB0C03001B61EB0C013E
:102EF000DFF8A4E14FEA1154A4EB135C1EEA430F80
:102F000018BF9EEA445F00F0B08023EA6E0352428D
:102F100021EA0451C3EB6E0338BF5B1EDCF1200EC7
:102F200025D322FA0CFE10EB0E0043FA0CFE41EB07
:102F30000E01CCF1200E03FA0EFE10EB0E0051F143
:102F40000001CCF1200E29D412FA0EF201EB04514B
:102F5000BDE8104058BF7047401C1CBFB2F1004F85
:102F6000704700280CBF491C20F00100704712EB8D
:102F7000020E43EB030218BF4FF0010E4EEA42026D
:102F8000ACF1200CDCF11E0E54D943FA0CFE10EB10
:102F90000E0051F1FF31CCF11E0ED5D50EF1010E10
:102FA00012FA0EFE404141EB010101EB445C5FEA85
:102FB0005C5C10D910EBDE7001EB045138BFBEF140
:102FC000004FBDE8104018BF704700280CBF491CD7
:102FD00020F00100704730D24FEAD42C11F50011D7
:102FE00024F400641BD0B1FA81F20B3AA41AA41E97
:102FF000D2F12003914030FA03F31943904001EBE2
:10300000CC71002C01EB0451BDE81040A8BF704703
:1030100001F1C0414FF0000001F000417047B0FAEB
:1030200080F310FA03F100D110BDE41A173C4805F3
:10303000C90AE4E701EB045110BD491001EB04514A
:10304000BDE810404FEA300002E04FF00001704749
:103050004A0008BF0042F8D0B2F5001F28BF7047F1
:1030600001F000414FF0000070479EEA445F07D036
:1030700011EA5E0FBDE8104004BF00210020704738
:10308000BDE8104070B5FFF7CBFE00BF40DFF63E55
:1030900083F00041104670470000E0FFFF01000090
:1030A0000000FF00FF0000000000FF010000000022
:1030B000FF00FF0000000000FF01FF000000FF0014
:1030C000E0300008000000201C0000006C01000837
:1030D000FC3000081C000020C40800008801000823
:1030E0000000000000000000800000000000000060
:0C30F000000000000000000000000000D4
:0400000508000205E8
:00000001FF
